:100000000C94BA060C94E2060C94E2060C94E206F8
:100010000C94E2060C94E2060C94E2060C94E206C0
:100020000C94E2060C94E2060C940C0B0C947E0BE0
:100030000C94E2060C94E2060C94E2060C94E206A0
:100040000C94E2060C94E2060C94E2060C94E20690
:100050000C94E2060C94E2060C94E2060C943F0E1B
:100060000C94E2060C94E2060C94E2060C94E20670
:100070000C94E2060C94E2060C94E2060C94E20660
:100080000C94E2060C94E2060C94E2060C94E20650
:100090000C94E2060C94E2060C94E2060C94E20640
:1000A0000C94E2060C94E2060C94E2062010808088
:1000B0004040A0A0D0D0E8E8F4F4FADADDEDEDDDC0
:1000C000DAFAF4F4E8E8D0D0A0A040408080010142
:1000D000020205050B0A16152D2E5E57B7BBBBB7DE
:1000E000575E2E2D15160A0B0505020201018080B0
:1000F0004040A0A0D0D0E8E8F4F4FADADDDDDDDDA0
:10010000DAFAF4F4E8E8D0D0A0A040408080010101
:10011000020205050B0A16162E2E5E57B7B7B7B7A3
:10012000575E2E2E16160A0B05050202010180806D
:100130004040A0A0D0D0E86874F4FADADDBDBDDD9F
:10014000DAFAF47468E8D0D0A0A0404080800101C1
:10015000020205050B0A16172F2E5E57B7AFAFB771
:10016000575E2E2F17160A0B0505020201012010FB
:100170008080404020A01010088804140202012151
:100180000501420A04840808109020204040808025
:10019000010102020404080810102024404080825B
:1001A000A080404028201010080804040202010129
:1001B0002010808040402020101008080404020213
:1001C000010101010202040408081010202040402F
:1001D0008080010102020404080810102020404021
:1001E0008080808040402020101008080404020213
:1001F0000101F0F89C8E8783878E9CF8F00000FE4A
:10020000FF0303030303070EFCF80000FEFF0303D4
:10021000030303070EFCF80000FFFF0000000000CE
:100220000000FFFF0000FEFF8383838383C7EE7C13
:10023000380000F8FC0E07030303070EFCF800006B
:100240003F7FE0C08080C0E07F3FFFFF01010101F0
:10025000010101FFFF0000FFFF0C0C0C0C1C3E779E
:10026000E3C100007FFFC0C0C0C0C0E0703F1F00FE
:10027000001F3F70E0C0C0C0E0703F1F00007FFF64
:10028000C1C1C1C1C1E3773E1C00001F3F70E0C087
:10029000C0C0E0703F1F000000000001FFFF010030
:1002A0000000D5F08D14A1C881CFD9F1AF20000195
:1002B00002030304040505060606050504040303FA
:1002C000020100FEFCFAF7F4F1C02018FEFEFCFC6F
:1002D000F8F8F0F0E0E0C0C080800000000080800E
:1002E000C0C0E0E0F0F0F8F8FCFCFEFEFFFFFFFF0E
:1002F000FFFFFFFFFFFFFFFFFFFFFFFFFFFFFFFF0E
:10030000FFFFFFFFFFFFFFFFFFFFFFFF00000101F7
:10031000030307070F0F1F1F3F3F7F7F7F7F3F3F75
:100320001F1F0F0F07070303010100008080C0C0DB
:10033000E0E0F0F0F8F8FCFCFEFEFFFFFFFFFEFE41
:10034000FCFCF8F8F0F0E0E0C0C08080010103039D
:1003500007070F0F1F1F3F3F7F7FFFFFFFFF7F7FBD
:100360003F3F1F1F0F0F070703030101010100009B
:100370000000020202020000000000000000000075
:100380000100000000000202020202000000000062
:10039000000101000000000000020202020202024D
:1003A000000000000000000002020202000202023F
:1003B000020202020200000000000000000202022D
:1003C000000202020202020202020000000000001B
:1003D000010002020000000000000202020202000E
:1003E0000000000001000200010000000000000207
:1003F00002020200000000010100000200010000F2
:1004000000000000020200000000000100000202E3
:1004100000010000000000000202000000000001D6
:1004200001000002000101000000000002020200C1
:1004300000000000000000020200010000000002B5
:10044000020202000000000000000202020200029C
:10045000020002020200000000000000000202028E
:100460000202020202000000000000000000000082
:100470000202020202000000000001000100000070
:100480000000000002020202000000000000000064
:100490000000000000000001020202000000000055
:1004A000000001000100000001000100040403023B
:1004B0000201000000000101020201010202030129
:1004C0000401030301010000000000020302010116
:1004D0000304040202030102010000000000000006
:1004E0000201010101010101000000000100000002
:1004F00000000000000102010101010202000000F1
:1005000001000000000000000000020301020203DD
:1005100004020000020101010101000000000002CC
:1005200001010202040200010401010101010100B4
:1005300000000001010102040401010003040101A3
:100540000101010100000101010202040301000098
:100550000304020201010101000001010101020482
:100560000402010002040403020101010000000270
:100570000101020303020100000204020101010063
:10058000000000010101010303010000000001005F
:10059000000100000001010102010102030000004E
:1005A000000000000001010101010101010102013F
:1005B000000000000001010101010401040101012A
:1005C000010203030000000001010101010000011C
:1005D0000101010203030304000000010101010203
:1005E00003020401040102020403040300000038B2
:1005F000FCFEFEFEFEFEFEFCB8000000000002074E
:100600007FFFFF7F3F7F7F3F0F000000000000B8AB
:10061000FCFEFEFEFEFEFEFCB8000000000001270E
:100620007FFF7F3F3F7F7F3F0F000000000000B84B
:10063000FCFEFEFEFEFEFEFC380000000002077F0E
:10064000FFFF7F3F7F7F3F0F00000000000080B86A
:10065000FCFEFEFEFEFEFEFC380000000001237FD3
:10066000FF7F3F3F7F7F3F0F00000000000000380A
:10067000FCFEFEFEFEFEFEFCB800000000000000D6
:100680000F3F7F7F3F7FFFFF7F07020000000038A2
:10069000FCFEFEFEFEFEFEFCB88000000000000036
:1006A0000F3F7F7F3F3F7FFF7F230100000000B8A7
:1006B000FCFEFEFEFEFEFEFC380000000000000F07
:1006C0003F7F7F3F7FFFFF7F07020000000000B8F1
:1006D000FCFEFEFEFEFEFEFCB80000000000000F67
:1006E0003F7F7F3F3F7FFF7F27010000101000000A
:1006F0000038C43ABABABABABA44B8000000000026
:1007000002057DA08F6F275767300F0000000000A3
:1007100000B8C43ABABABABABA44B8000000000085
:1007200001265DA04F2F375747300F0000001010F3
:10073000000000B844BAAABAAABA3AC43800000005
:100740000002057DA08F6F255467300F0000000068
:10075000000080B844BAAABAAABA3AC43800000065
:100760000001225DA04F2F335447300F00000000DE
:10077000101000000038C43ABAAABAAABA44B800A5
:100780000000000000000F306754256F8FA07D052A
:10079000020000000038C43ABAAABAAABA44B88023
:1007A0000000000000000F304754332F4FA05D229F
:1007B00001001010000000B844BABABABABA3AC47C
:1007C000380000000000000F306757276F8FA07DB2
:1007D00005020000000000B844BABABABABA3AC476
:1007E000B80000000000000F304757372F4FA05DC2
:1007F00026010000080B00020202010009040000AB
:100800000102020000052400100105240101010479
:100810002402060524060001070581031000400993
:10082000040100020A000000070502024000000760
:100830000583024000000403090412010002EF02D4
:1008400001404123368000010102030141726475B9
:10085000696E6F204C4C430041726475696E6F2065
:100860004C656F6E6172646F0001020408102040D5
:100870008000000000003E5B4F5B3E3E6B4F6B3ED6
:100880001C3E7C3E1C183C7E3C181C577D571C1C93
:100890005E7F5E1C00183C1800FFE7C3E7FF0018EE
:1008A000241800FFE7DBE7FF30483A060E262979D7
:1008B0002926407F050507407F05253F5A3CE73C38
:1008C0005A7F3E1C1C08081C1C3E7F14227F2214E9
:1008D0005F5F005F5F06097F017F006689956A6040
:1008E0006060606094A2FFA29408047E0408102057
:1008F0007E201008082A1C08081C2A08081E101050
:1009000010100C1E0C1E0C30383E3830060E3E0EF9
:1009100006000000000000005F0000000700070064
:10092000147F147F14242A7F2A122313086462364A
:10093000495620500008070300001C2241000041D6
:10094000221C002A1C7F1C2A08083E080800807010
:100950003000080808080800006060002010080443
:10096000023E5149453E00427F4000724949494696
:100970002141494D331814127F1027454545393C14
:100980004A49493141211109073649494936464901
:1009900049291E0000140000004034000000081423
:1009A000224114141414140041221408020159099C
:1009B000063E415D594E7C1211127C7F49494936F1
:1009C0003E414141227F4141413E7F494949417F6A
:1009D000090909013E414151737F0808087F004120
:1009E0007F41002040413F017F081422417F404069
:1009F00040407F021C027F7F0408107F3E4141413E
:100A00003E7F090909063E4151215E7F09192946A9
:100A1000264949493203017F01033F4040403F1FBF
:100A20002040201F3F4038403F63140814630304F4
:100A30007804036159494D43007F41414102040854
:100A40001020004141417F04020102044040404027
:100A500040000307080020545478407F284444385D
:100A60003844444428384444287F385454541800A7
:100A7000087E090218A4A49C787F08040478004426
:100A80007D40002040403D007F1028440000417F11
:100A900040007C047804787C08040478384444449A
:100AA00038FC1824241818242418FC7C0804040892
:100AB000485454542404043F44243C4040207C1CAB
:100AC0002040201C3C4030403C44281028444C909E
:100AD00090907C4464544C440008364100000077F8
:100AE0000000004136080002010204023C262326D1
:100AF0003C1EA1A161123A4040207A385454555905
:100B0000215555794121545478412155547840203C
:100B1000545579400C1E5272123955555559395455
:100B200054545939555454580000457C41000245ED
:100B30007D420001457C40F0292429F0F028252839
:100B4000F07C545545002054547C547C0A097F495C
:100B500032494949323248484832324A4848303AA4
:100B60004141217A3A42402078009DA0A07D39443D
:100B70004444393D4040403D3C24FF2424487E49C4
:100B800043662B2FFC2F2BFF0929F620C0887E09F6
:100B90000320545479410000447D413048484A3292
:100BA000384040227A007A0A0A727D0D19317D267A
:100BB00029292F28262929292630484D4020380860
:100BC00008080808080808382F10C8ACBA2F1028E1
:100BD00034FA00007B000008142A142222142A147C
:100BE000089500220095AA005500AAAA55AA55AA60
:100BF000000000FF00101010FF00141414FF00107C
:100C000010FF00FF1010F010F0141414FC00141466
:100C1000F700FF0000FF00FF1414F404FC14141785
:100C2000101F10101F101F1414141F00101010F0AC
:100C3000000000001F101010101F10101010F010F6
:100C4000000000FF101010101010101010FF100006
:100C50000000FF140000FF00FF00001F101700003D
:100C6000FC04F414141710171414F404F40000FF17
:100C700000F714141414141414F700F714141417B0
:100C80001410101F101F141414F4141010F010F08E
:100C900000001F101F0000001F14000000FC1400C3
:100CA00000F010F01010FF10FF141414FF141010B7
:100CB000101F00000000F010FFFFFFFFFFF0F0F03A
:100CC000F0F0FFFFFF0000000000FFFF0F0F0F0F0D
:100CD0000F38444438447C2A2A3E147E0202060619
:100CE000027E027E0263554941633844443C04401D
:100CF0007E201E2006027E020299A5E7A5991C2AE5
:100D0000492A1C4C7201724C304A4D4D30304878A3
:100D10004830BC625A463D3E494949007E010101C6
:100D20007E2A2A2A2A2A44445F444440514A4440A5
:100D300040444A51400000FF0103E080FF000008EA
:100D4000086B6B083612362436060F090F060000B2
:100D500018180000001010003040FF0101001F01B2
:100D6000011E00191D1712003C3C3C3C0000000015
:100D70000000821811241FBECFEFDAE0DEBFCDBF26
:100D800011E0A0E0B1E0EEECF4E302C005900D92BA
:100D9000A634B107D9F725E0A6E4B1E001C01D9261
:100DA000A23FB207E1F716E0CAEBD6E004C02197F4
:100DB000FE010E945A1AC93BD107C9F70E94A5112A
:100DC0000C94651A0C940000FC018091580181116B
:100DD00003C08FEF9FEF08959FB7F89482E0809350
:100DE000E9002091F20030E01216130614F421E01D
:100DF00030E02115310559F0289884E68093570199
:100E00008091F10080838091F200882319F09FBFC8
:100E1000C90108958BE68093E800F9CF2FB7F894C5
:100E200083E08093E9009091E800892F807295FF1C
:100E300004C09091F20080E4891B2FBF0895CF93E6
:100E4000DF931F92CDB7DEB76983DC01ED91FC9192
:100E50000280F381E02D41E050E0BE016F5F7F4FE3
:100E600009950F90DF91CF91089583E08093E90079
:100E70008091F200882319F08AE38093E8000895B6
:100E80000E940E0790E00895CF93DF931F92CDB795
:100E9000DEB7FC018485958597FD05C02FEF3FEFF8
:100EA000358724870BC0CE0101960E94E406019786
:100EB00019F4898190E002C08FEF9FEF0F90DF91CE
:100EC000CF9108950F931F93CF93DF931F92CDB7C8
:100ED000DEB78C01FC018485958597FF0EC0CE019D
:100EE00001960E94E406019719F4298130E002C0BE
:100EF0002FEF3FEFF80135872487F801848595852A
:100F00000F90DF91CF911F910F910895FC0184857F
:100F1000958597FD0BC09FB7F89482E08093E90018
:100F20008091F2009FBF90E0019608959FB7F894DA
:100F300082E08093E9008091F2009FBF90E00895E5
:100F40008F929F92AF92BF920F931F93CF93DF9395
:100F5000CDB7DEB7A1970FB6F894DEBF0FBECDBFF9
:100F600019A2423008F44AE08E010F5D1F4F842E13
:100F7000912CA12CB12CA50194010E94011AE62FFD
:100F8000B901CA0101501109EA3014F4E05D01C051
:100F9000E95CD801EC93232B242B252B61F7011559
:100FA000110571F0F80101900020E9F73197AF01C8
:100FB000401B510BB80184E795E00E94AE0D02C0C2
:100FC00080E090E0A1960FB6F894DEBF0FBECDBFD3
:100FD000DF91CF911F910F91BF90AF909F908F9015
:100FE00008958F929F92AF92BF92CF92DF92EF922D
:100FF000FF920F931F93CF93DF935C016B017A01F4
:1010000080910901882309F45BC0809158018823ED
:1010100009F456C08091560180FF05C08091E00020
:1010200082608093E000E70110E00AEF83E0882E01
:101030009AE3992E2097D9F10E940E0781110AC0D8
:10104000015009F43DC061E070E080E090E00E9452
:10105000050EF0CF282F30E0C217D3070CF48C2FE9
:101060004FB7F8948092E9009091E80095FF1DC079
:10107000282F30E0C21BD30BF601982F915020F09F
:1010800081918093F100FACFC20ED31E112319F083
:101090009092E80009C08091E80085FD06C090921A
:1010A000E80011E0209709F010E04FBFC3CF111105
:1010B000C3CF5D9884E6809355011E141F0444F04D
:1010C00081E090E0F5019383828380E090E001C0AD
:1010D000C701DF91CF911F910F91FF90EF90DF90AB
:1010E000CF90BF90AF909F908F90089580917B0597
:1010F00090917C0563E070E00E94321A892B51F4D4
:1011000080916F05811104C081E080936F0508957F
:1011100010926F05089580915B0590915C05880F92
:10112000991F2091590530915A05F901E80FF91FCF
:10113000F7FD7F9645E0F595E7954A95E1F70E2E88
:10114000000CFF0B821B930B97FD4F9625E09595A6
:1011500087952A95E1F724E18202E00DF11D112423
:10116000E455FB4FE4918E2F880F8E0F0895FF9268
:101170000F931F93CF93DF93A0915905B0915A0518
:10118000082F880F110BFD01E00FF11F80915B0507
:1011900090915C05C62F660FDD0B9C012C0F3D1F47
:1011A000220F331FAF01420F531F403862E0560732
:1011B00010F080E080C02E1B3F0B211562E0360747
:1011C000C0F7880F991FFD01E80FF91FF7FD7F9603
:1011D00065E0F595E7956A95E1F78A1B9B0B97FD0E
:1011E0004F96BC0185E0759567958A95E1F7A4E176
:1011F000A69FC001A79F900D1124E80FF91FE45589
:10120000FB4F8491FA0195E0F595E7959A95E1F702
:1012100045E0359527954A95E1F7A29FB001A39F38
:10122000700D1124E60FF71FE455FB4F4491E82F92
:10123000F0E0E41BF109FE2EFF0CFE0E1F1474F407
:101240008091700581110AC081E0809370050E9431
:101250008B0880935E0583E1809371058091700512
:10126000811104C08DEFF8168CF4A3CF0E948B0877
:10127000082E000C990B8F199109F7FC939520917A
:101280005D0530E0281739070CF493CF809159059C
:1012900090915A05080F191F10935A05009359058C
:1012A00060915B0570915C05C60FD71FD0935C05FC
:1012B000C0935B0581E0DF91CF911F910F91FF906B
:1012C00008955F926F927F928F929F92AF92BF929A
:1012D000CF92DF92EF92FF920F931F93CF93DF9302
:1012E000EC018B017A01A901461B570B57FF03C084
:1012F000519541955109C7018C1B9D0B97FF03C068
:10130000919581959109552453948417950714F06C
:10131000512C0AC09E2D8F2D7901292F382F9C2FFB
:101320008D2FE801092F182FEC16FD0654F4902F8D
:10133000812F8901292F382F9C2F8D2FE701E92E2E
:10134000F82E37016C1A7D0A5901A01AB10AB7FEAE
:1013500003C0B194A194B108630177FE03C08FEF7D
:10136000C81AD80AD594C7940217130714F08FEF40
:1013700001C081E0882E880F9908EC16FD06B4F0B4
:1013800021E0552019F0AE01B80102C0A801BE014C
:1013900088E795E00E947F10CA18DB08D7FE04C0DA
:1013A000080D191DC60CD71C2196E7CFDF91CF91F0
:1013B0001F910F91FF90EF90DF90CF90BF90AF9073
:1013C0009F908F907F906F905F900895DF92EF9243
:1013D000FF920F931F93CF93DF937C01D22E8B014B
:1013E000040F111DEB0177FF0EC0C0E0D0E00BC071
:1013F000C417D5077CF42D2DAE01B70188E795E021
:101400000E947F102196A801013411058CF340E45D
:1014100050E0EECFDF91CF911F910F91FF90EF90B1
:10142000DF900895CF92DF92EF92FF92CF93DF93F8
:101430006C01990FEE08FF08F7FE1FC0E0917405DC
:10144000F09175050190F081E02D6DE284E795E063
:101450000995EC0166277727CB016C197D098E0968
:101460009F094AE00E94A0078C0F9D1FDF91CF913A
:10147000FF90EF90DF90CF9008954AE0C701B6014A
:10148000DF91CF91FF90EF90DF90CF900C94A00769
:1014900080E0E9E5F1E081118FEF002481938193F1
:1014A000819381930394D1F70895E9E5F1E0A0E0F9
:1014B000B8E000800EBC8111012C1197A0FDFDCF7A
:1014C0000192B9F70DB4089580918F0581110DC077
:1014D00082E080938B0584E080938C0510928E05CA
:1014E00010928D0581E080938F058BE895E008953B
:1014F0004091EB055091EC052091E9053091EA050A
:1015000042175307B4F49091E8009570E1F390917D
:10151000E80092FD19C08093F1008091EB05909155
:10152000EC0501968F739927892B19F48EEF809320
:10153000E8008091EB059091EC0501969093EC0505
:101540008093EB0581E0089580E00895DF92EF92AB
:10155000FF920F931F93CF93DF93D82E8A017B01C5
:10156000E40EF51EEB01CE15DF0571F0D7FE03C0CA
:10157000FE01849101C088810E94780A2196811120
:10158000F2CF8FEF9FEF01C0C801DF91CF911F9184
:101590000F91FF90EF90DF900895615030F020910F
:1015A000F100FC0120830196F8CF289884E680930F
:1015B000570108950F931F93CF93DF931F92CDB7D9
:1015C000DEB782E0898342E450E064EF77E080E8B0
:1015D0000E94A60A0E94640ADC0112960D911C91D9
:1015E00013970115110569F0D801ED91FC91028066
:1015F000F381E02DBE016F5F7F4FC801099597FF12
:1016000007C089810F90DF91CF911F910F910895AD
:10161000F80100851185E5CF1F920F920FB60F924A
:1016200011248F939F938091E1009091E100937F2B
:101630009093E10083FF0FC01092E90091E0909336
:10164000EB001092EC0092E39093ED0010925801A1
:1016500098E09093F00082FF20C093E09093E9001F
:101660009091F200992319F09AE39093E8009091F9
:101670005501992339F0909155019150909355015E
:10168000992389F190915701992339F0909157014D
:10169000915090935701992341F184FF10C080919C
:1016A000E2008E7E81608093E2008091E1008F7E77
:1016B0008093E100809156018E7E806111C080FF91
:1016C00016C08091E2008E7E80618093E20080915E
:1016D000E1008E7E8093E100809156018E7E8160D4
:1016E0008093560104C05D9ACDCF289AD6CF9F91A2
:1016F0008F910F900FBE0F901F9018951F920F9211
:101700000FB60F921124CF92DF92EF92FF920F93B8
:101710001F932F933F934F935F936F937F938F9379
:101720009F93AF93BF93EF93FF93CF93DF93CDB787
:10173000DEB76C97DEBFCDBF1092E9008091E80064
:1017400083FFEDC168E0CE0145960E94CD0A82EF8D
:101750008093E8008D8987FF05C09091E80090FF95
:10176000FCCF03C09EEF9093E800982F907609F08D
:10177000C6C09E892F89188D91110CC0803829F41C
:101780008091E8058093F10002C01092F100109260
:10179000F10048C1422F50E0512B913051F481119A
:1017A00041C14130510509F03DC18091E8058D7F6F
:1017B0000BC0933061F4811135C14130510509F0FE
:1017C00031C18091E80582608093E8052BC1953096
:1017D00041F48091E80080FFFCCF20682093E30073
:1017E00021C1963009F05FC0EB8CFC8C1092E900AF
:1017F0001092EC051092EB05123091F51092EA056B
:101800001092E9050E94DA0A99E0BE016F5F7F4FEE
:10181000DB01E92F1D92EA95E9F799831A8391E09C
:101820009E8390EA98879AEF99872091EB053091F3
:10183000EC05275F3F4F3C832B838D831092E9009B
:101840001092EC051092EB05F092EA05E092E905A2
:1018500049E050E080E00E94A60A0E94DA0AE2C055
:10186000F092EA05E092E9050E94640ADC01129612
:10187000ED90FC901397E114F10409F4C0C0D70176
:10188000ED91FC910480F581E02DBE016B5E7F4FF0
:10189000C7010995009719F00CF0C4C0C7C0F70143
:1018A000E084F184E8CF973009F4C0C0983021F487
:1018B00081E08093F100B6C0993009F0B3C0837025
:1018C00009F0B4C0EFE3F1E081E021E036E390817C
:1018D000992361F08093E9002093EB00919190931C
:1018E000EC003093ED008F5F873089F78EE78093AF
:1018F000EA001092EA008F898093580193C08B8D83
:101900009C8D1092E9001092EC051092EB059093DB
:10191000EA058093E905898D811156C08E899D89DC
:10192000913A59F4813209F081C047E050E062E019
:1019300071E080E00E94A60A75C0913209F076C07D
:10194000833289F4888D90E0982F88272F89822B05
:10195000A0E0B0E080930A0190930B01A0930C01EA
:10196000B0930D015FC0803269F48091E80082FF7E
:10197000FCCF67E082E091E00E94CD0A8BEF80937C
:10198000E80006C0823209F04DC08F8980930901BA
:101990008091E705882319F0EEEFFAE002C0E0E05D
:1019A000F8E08091020190910301A0910401B091AF
:1019B0000501803B9440A105B10509F07BC08091F1
:1019C000090180FF93C076C00E94640ADC01129670
:1019D0000D911C9113970115110541F1D801ED915D
:1019E000FC910190F081E02DBE016B5E7F4FC8013C
:1019F0000995811117C0F80100851185ECCF1130D0
:101A000009F44EC0133091F48F89882309F445C03E
:101A1000823081F440E860E188E598E00E94DB18BC
:101A2000882321F08EEF8093E80079C081E28093D3
:101A3000EB0075C0813029F440E86BE08CE498E05D
:101A4000EDCF833099F70E94640ADC011296ED9085
:101A5000FC9013978E010F5F1F4F6801E114F10492
:101A600079F0D701ED91FC910680F781E02DB80166
:101A7000C7010995080F111DF701E084F184EECF2D
:101A8000D8011C92F60101900020E9F73197BF01BF
:101A90006C197D0940E0C601C1CF66E378E002C061
:101AA0006AE378E06115710509F2FB01449150E0A9
:101AB00080E840CF0FB6F894A895809160008861C7
:101AC00080936000109260000FBEA895EE3F2AE060
:101AD000F20739F08091FE0A9091FF0A918380838A
:101AE000A1CF1092FF0A1092FE0A9CCFEE3F8AE02F
:101AF000F80731F0808191819093FF0A8093FE0A6C
:101B000087E797E7918380839BE088E10FB6F8949D
:101B1000A895809360000FBE9093600083CF6C9671
:101B20000FB6F894DEBF0FBECDBFDF91CF91FF910E
:101B3000EF91BF91AF919F918F917F916F915F9145
:101B40004F913F912F911F910F91FF90EF90DF9058
:101B5000CF900F900FBE0F901F901895CF92DF92ED
:101B6000EF92FF920F931F93CF93DF936C017A0153
:101B70008B01C0E0D0E0CE15DF0589F0D8016D9172
:101B80008D01D601ED91FC910190F081E02DC6010F
:101B90000995892B11F47E0102C02196ECCFC70173
:101BA000DF91CF911F910F91FF90EF90DF90CF9039
:101BB00008950895089580E090E008950E94601AC5
:101BC0003FB7F8948091EE059091EF05A091F00554
:101BD000B091F10526B5A89B05C02F3F19F00196DD
:101BE000A11DB11D3FBFBA2FA92F982F8827820FA3
:101BF000911DA11DB11DBC01CD0142E0660F771FF3
:101C0000881F991F4A95D1F708958F929F92AF929E
:101C1000BF92CF92DF92EF92FF926B017C010E9404
:101C2000E00D4B015C01C114D104E104F104F1F0B9
:101C30000E94E00DDC01CB0188199909AA09BB09B2
:101C4000883E9340A105B10570F321E0C21AD10886
:101C5000E108F10888EE880E83E0981EA11CB11CF3
:101C6000C114D104E104F10419F7DDCFFF90EF9026
:101C7000DF90CF90BF90AF909F908F9008951F926C
:101C80000F920FB60F9211242F933F938F939F9330
:101C9000AF93BF938091460190914701A091480175
:101CA000B09149013091ED0523E0230F2D3720F449
:101CB0000196A11DB11D05C026E8230F0296A11DA6
:101CC000B11D2093ED058093460190934701A093A9
:101CD0004801B09349018091EE059091EF05A091E4
:101CE000F005B091F1050196A11DB11D8093EE059F
:101CF0009093EF05A093F005B093F105BF91AF91DC
:101D00009F918F913F912F910F900FBE0F901F9039
:101D100018954F925F927F928F929F92AF92BF924F
:101D2000CF92DF92EF92FF920F931F93CF93DF93A7
:101D300000D000D0CDB7DEB729011C2DA02EB12CCC
:101D40009C012A0D3B1D121613060CF0B3C18038FE
:101D500091050CF0AFC1FB01EE0DF11D1E161F0623
:101D60000CF0A8C1603471050CF0A4C141155105F7
:101D700009F4A0C1E62FE770FE2EFB0177FD379630
:101D8000A3E0F595E795AA95E1F7AE2F77FF04C09C
:101D9000FF2011F0AFEFAE0F97FF05C0EE27FF2732
:101DA000E81BF90B02C0E0E0F0E02038310524F038
:101DB00020E8722E781A01C0702E7E1A6A2F0A2E21
:101DC000000C770BAF3F1CF4D62ED09401C0D12C61
:101DD00021E03E2D377009F420E0E694E694E69485
:101DE000E20E6E0D711D693071051CF028E0E22EC7
:101DF000EA1AED183D2D3A0FDC0120E83203A00D60
:101E0000B11D1124AE0FBF1FD09EE00DF11D112496
:101E10004E0F5F1F81E090E04C010F2C02C0880C38
:101E2000991C0A94E2F7133009F403C1A0F41130AD
:101E300009F4B5C0123009F03DC18FEF889DB001A3
:101E4000899D700D1124609570957C836B835C80F7
:101E50002E2D230F2BC01A3F31F01B3F09F02AC152
:101E60002E2D230F88C02E2D230F51C0FA01E00F15
:101E7000F11FE491E89D6001E99DD00C1124DA8204
:101E8000C98237FD07C0FC01E080EE2DE623CE2A93
:101E9000FC01C082F11013C00F5F1F4F01960715A0
:101EA00028F33F5F4A0D5B1DA058BF4F321709F45E
:101EB00001C1CD01875A9E4F00E010E0F0CF3730CE
:101EC0005CF7FC01E058FF4FD080D520CA80DC28A9
:101ED000D082E2CFFA01E60FF71FE491E89D80017E
:101EE000E99D100D11241A83098337FD04C0FC01FC
:101EF0001081012B0083F11013C06F5F7F4F01969B
:101F0000671540F33F5F4A0D5B1DA058BF4F321766
:101F100009F4D0C0CD01875A9E4F60E070E0F0CF49
:101F200037305CF78C0100581F4FF801E080EA81E0
:101F3000EE2AF801E082E1CFFA01E00FF11FE4910F
:101F4000E89DC001E99D900D11249A83898337FD96
:101F500005C08095FB01908189238083F11014C016
:101F60000F5F1F4F6F5F7F4F071530F33F5F4A0DC5
:101F70005B1DA058BF4F321709F49CC0BD01675AC2
:101F80007E4F00E010E0F0CF373054F7FB01E0580F
:101F9000FF4F8A818095908189238083E1CFC201A0
:101FA0008E0F9F1F2E2D230F321709F483C0BD0102
:101FB000675A7E4F6B0100E010E0071590F5FC01B9
:101FC000E00FF11FE491E89DB001E99D700D11242F
:101FD000609570957C836B83FA01E00FF11FE491AB
:101FE000E89D2001E99D500C11245A82498237FD59
:101FF00005C0F60170816723462A4082FF2059F010
:1020000037304CF4F601E058FF4F70816C81672344
:102010007A81672B60830F5F1F4FFFEFCF1ADF0AB4
:10202000CCCF3F5F4A0D5B1D8A0D9B1DA058BF4F53
:10203000BBCFC72CD12CE40FF51FA75ABE4F60E8C9
:1020400070E06C197D09AC18BD088501000F111FE7
:10205000572D2E2DCF93DF93ED01EF96EF9622961D
:10206000A590C590FF2059F0A89C5001C89C600124
:1020700037302CF4E880D094ED20EB28E99233231C
:102080003AF0EC90C094EC20EA28ED920C944910C0
:1020900011965A9529F72A9551F0572D3395112409
:1020A000E00FF11DA60FB11DC60FD11DD9CFDF91D5
:1020B000CF9111240F900F900F900F90DF91CF913F
:1020C0001F910F91FF90EF90DF90CF90BF90AF9056
:1020D0009F908F907F905F904F9008952D9A0895D4
:1020E000BC0180E090E00C94050E8FB18095807F5C
:1020F000669B88601C9B846008950C94B9196038B5
:102100007105D0F440345105B8F4E9E6F8E080E117
:10211000849FD001A0781124A60F4770E40FF11D11
:102120008491A75ABE4F222319F06C91862B03C0CD
:1021300080956C9186238C9308952F923F924F92B5
:102140005F926F927F928F929F92AF92BF92CF9247
:10215000DF92EF92FF920F931F93CF93DF93CDB750
:10216000DEB729970FB6F894DEBF0FBECDBFFC01D6
:102170006A3069F425898189928938E0239F800D2E
:10218000911D1124928B818B108A1786AAC06D3005
:1021900009F4A7C099878887F588348823886188DF
:1021A00072880785108900381105C4F0A885B985A3
:1021B00055962C915597422F50E01F968D919C91EA
:1021C0005097B6E02B9F800D911D1124E885F9856D
:1021D000908B8787268921116EC083C0F0E46F162B
:1021E000710424F7C80125E0F29E800D911D112491
:1021F00018161906DCF68F2D90E09C838B83C301A3
:10220000A8E0FA9E800D911D11241816190674F687
:10221000B5E06B9FB0011124FB01EF58F74FFA8333
:10222000E98330E08885998504969E838D83E981D2
:10223000FA81E490353009F4E12C430188E0482E1E
:10224000E0FC02C0532C01C0522C51100BC03210C4
:1022500009C0E6944A948B819C81880E991E411096
:10226000EFCF1BC068018C2D801B8F1590F7540198
:102270008A2D88198F1568F4252DA501B6018D8149
:102280009E813F830E947F109FEFA91AB90A3F8168
:10229000EFCFAFEFCA1ADA0AE6CF3F5FEB81FC81DE
:1022A0000E0F1F1F89819A8101969A838983363088
:1022B00009F0BDCF7BCF6AEF64039001659F300DBD
:1022C000112420583F4F281739075CF4A885B98599
:1022D000ED91FC9111970190F081E02D6AE0CD0124
:1022E000099581E090E029960FB6F894DEBF0FBE05
:1022F000CDBFDF91CF911F910F91FF90EF90DF90B5
:10230000CF90BF90AF909F908F907F906F905F9095
:102310004F903F902F90089520914C0130914D01A6
:10232000281B310987FD339530934D0120934C01D3
:1023300080914A0190914B01861B910967FD93950D
:1023400090934B0180934A010895CF93DF93CDB7CB
:10235000DEB72A970FB6F894DEBF0FBECDBF7894D4
:1023600084B5826084BD84B5816084BD85B582609A
:1023700085BD85B5816085BD80916E00816080934B
:102380006E001092810080918100826080938100B4
:1023900080918100816080938100809180008160C4
:1023A0008093800080919100826080939100809161
:1023B0009100816080939100809190008160809372
:1023C00090008091C10084608093C1008091C10021
:1023D00082608093C1008091C10081608093C100C0
:1023E0008091C30081608093C3008091C0008260AF
:1023F0008093C0008091C20081608093C200809170
:102400007A00846080937A0080917A008260809361
:102410007A0080917A00816080937A0080917A00BE
:10242000806880937A00109258011092E80510920B
:1024300056018091D70081608093D70080EA809315
:10244000D80089B5806189BD89B5826089BD09B42C
:1024500000FEFDCF61E070E080E090E00E94050E9C
:102460008091D8008F7C80618093D8008091E000BB
:10247000807F8093E0008091E1008E7E8093E10078
:102480008DE08093E200559A209AEEEFFFE7859168
:1024900094918B3F9C4D19F481E08093E70581EC8A
:1024A00080937C0085B1806F85B984B1877E84B9C3
:1024B00084B1876E84B95E9A5F988AB1806D8AB95B
:1024C000769A6E9881B3806F81BB899880B38D7046
:1024D00080BB80E58CBD81E08DBD85E090E00E94F1
:1024E00070105F9A85E090E00E9470105E985C9892
:1024F000E2EAF2E08DE08E0F94919EBD00000DB4F3
:1025000007FEFDCF31968E13F7CF5C9A81E880935A
:1025100064008091650081608093650080E00E9486
:10252000550A0E94751087FF24C05C9885EA8EBD0D
:1025300000000DB407FEFDCF5C9A2E982F982D98C1
:102540008091640080628093640081E083BF8895FD
:1025500013BEFCCF2D980E9475108478843871F0DA
:102560000E9475108471843131F188EC90E00E94F2
:1025700070100E94751082FDEDCF3AC00E946E105F
:1025800088EC90E00E9470102F9882E090E00E940A
:10259000B9198F3F29F06FEF82E090E00E94C119D6
:1025A00084EF91E00E9470102F9A0E947510847839
:1025B0008438D9F3D5CF0E946E1088EC90E00E9449
:1025C00070102E9882E090E00E94B919882329F0BB
:1025D00060E082E090E00E94C11984EF91E00E94E7
:1025E00070102E9A0E94751084718431D9F3BDCF7A
:1025F0000E946E1082E090E00E94B919882331F0A9
:102600003E9A3F9A81E080934E0104C010924E01A1
:102610003E983F9881E090E00E947D1082FB9924D3
:1026200090F881FF92C091102E98B0EF4B2E552458
:102630005A9408E010E00E94751086FF04C02E9A9C
:102640002F9A2D9A82C0992031F024E0421651042D
:1026500011F42E9A2F9881E00E94550A920157FE9C
:1026600004C0222733272419350927703327C201D4
:1026700057FC0796A3E095958795AA95E1F757FE35
:1026800005C00197A801421B530B9A017C01F694E7
:10269000FE2CEE24F794E79440E050E03801621AF3
:1026A000730AB70160587F4F5B018F3F7FEF970739
:1026B00044F40196485A5F4F7501403B510589F734
:1026C00021C0D701A351BE4F60E070E08F3FEFEF14
:1026D0009E0709F437C4FB01E40FF51FEE50FE4FCF
:1026E000E4916D01CA18DB08CE0CDF1CF0E01F017D
:1026F000022E01C0220C0A94EAF7F60180802828F5
:10270000208220C480E00E94550A8FE090E00E9461
:102710007010FFEF4F1A5F0A29E14216510409F0C9
:102720008ACF992011F02F9A2D9880E991E00E948C
:1027300070100E946E10E0917805F091790501907B
:10274000F081E02D88E795E0099582E390E00E9412
:1027500070100E9475108111F8CF809164008E7FF7
:102760008093640080917A00806480937A008091E5
:102770007A0086FDFCCF00917800109179000E94CC
:10278000E00D20E030E0980111270027600F711F55
:10279000821F931F611571058105910511F00E943B
:1027A000B019809164008160809364000E94480A9F
:1027B000109286051092850510928405109283056B
:1027C00081E280937F0588E390E090935A0580939F
:1027D000590590935C0580935B05E5ECF4E0E4918A
:1027E0008E2F880FE80FE0935D0588EC9FEF9093A4
:1027F0004D0180934C0180EF9FEF90934B018093AC
:102800004A018FB7F8944091460150914701609179
:102810004801709149018FBF80918005342F381B8A
:10282000832F90918105992329F03093820510928E
:10283000810580C390917F05391748F48F5F891710
:1028400008F078C381E083BF889513BE73C311E09D
:10285000109381054093800580917B0590917C05C4
:10286000019690937C0580937B050E94480A109204
:10287000860510928505109284051092830580913B
:102880007D0580937E050E94751080937D05809163
:102890007B0590917C056EE170E00E94321A892BD5
:1028A000A9F49091010180910001992341F08F5F7B
:1028B00080930001823051F41092010107C08150D1
:1028C00080930001811102C01093010160915905AC
:1028D00070915A0580915B0590915C05880F991F56
:1028E0009B01280F391F37FF02C0215E3F4F45E093
:1028F000359527954A95E1F7422F861B970B97FD53
:102900004F9635E0959587953A95E1F7582F8630A3
:102910001CF01BEF180F01C010E05B304CF4082EC8
:10292000000C990BBC016B5F7F4F7A83698304C0F5
:1029300080E190E09A8389838BEF820F463014F018
:10294000D82E01C0D12C4F3044F4822F220F990B86
:10295000FC013596FC83EB832AC024E130E03C8304
:102960002B8325C0C50182199309039680904C01E1
:10297000682D30E1839F600D11248D819E818A0D29
:102980009B1DAC0144555B4F5A874987FA0124913E
:1029900060904A01603E4CF5F394AF2C0F2C000C74
:1029A000BB082B813C81A216B306E4F21F5F212EE7
:1029B000012E000C330849815A81241635060CF08B
:1029C00042C1FD2C84E1829DB001839D700D1124D4
:1029D0007E836D83C101019604E1089FF001099F88
:1029E000F00D1124F887EF83D8CFA501420D531DB8
:1029F000F8E04F9F600C1124322F330F230F362D38
:102A0000321B31344CF6393E3CF2FC01E459FC4FA8
:102A10008491823029F4809100018093540102C096
:102A20001092540120915401E491F0E0EE0FFF1F49
:102A3000EE5EFE4F40815181632E330F7708862E64
:102A4000660F99084115510579F1FA010491319603
:102A5000E4904E5F5F4F2223F9F0A02FB0E08E2D5F
:102A6000869586958695682F70E081E090E03E2DF2
:102A7000377011F480E090E0860F971FA89FB00197
:102A8000A99F700DB89F700D1124269FC001279F2C
:102A9000900D1124480F591FCC24C3942CE233E02D
:102AA000B301C4010E94890EE985FA8584918823C7
:102AB00009F4A5C02301F8E04F0E511CEAECF2E046
:102AC0000491EBECF2E0E4908BEFC82E20E030E0D4
:102AD0004CEC52E0B201C4010E94890E1F300CF090
:102AE00057C0F2E1FF150CF453C0E985FA858491D3
:102AF0002F8138852A0D3B1D24553B4FF901449108
:102B000090E0841B9109181619063CF4E985FA85B2
:102B10008491F9012491821B01C080E080935301CC
:102B2000E985FA858491FFEFAF1ABF0A2D813E81B6
:102B30002A0D3B1D24553B4FF901449190E0841B25
:102B40009109181619063CF4E985FA858491F90172
:102B50002491821B01C080E080935201E985FA85AF
:102B600084912F8138852A0D3B1D24553B4FF90157
:102B7000449190E0841B9109181619063CF4E985EC
:102B8000FA858491F9012491821B0BC080E009C071
:102B9000E985FA8584918093530184918093520151
:102BA00084918093510140915301842F880F480FE5
:102BB00021E0B201C4010E94E60940915201842F34
:102BC000880F480F21E0B201C4014F960E94E60928
:102BD00080915101982F990F092F080FF0E16F0E86
:102BE000711C21E0402FB301C4010F960E94E60939
:102BF00021E0402FB301C40140960E94E6094091B4
:102C0000590550915A0580915B0590915C05880F9C
:102C1000991F9A01280F391F37FF02C0215E3F4FCD
:102C2000B5E035952795BA95E1F7F212B5CE841B3C
:102C3000950B97FD4F96A5E095958795AA95E1F799
:102C40001813AACE9AC160914A0170914B018091EC
:102C50004C0190914D019B01215E3E4FAC014158CA
:102C60005F4F60587F4F805C91090E9461096091BD
:102C70004A0170914B0180914C0190914D019B0153
:102C8000215E3E4FAC0140585F4F60567F4F8158E8
:102C90009E4F0E9461090E94751085FF1EC00E9410
:102CA000751086FD1AC00E94751087FD16C00E941F
:102CB000751084FD12C06FEF8EEF0E94B708882355
:102CC00021F06FEF8EEF0E948C1183E090E09093E3
:102CD0007305809372050E9476080E94751086FF26
:102CE0001EC00E94751085FD1AC00E94751087FDD8
:102CF00016C00E94751084FD12C061E082E00E943F
:102D0000B708882321F061E082E00E948C1121E065
:102D100030E030937305209372050E9476080E947C
:102D2000751087FF1CC00E94751086FD18C00E9498
:102D3000751085FD14C00E94751084FD10C06FEFE2
:102D400082E00E94B708882321F06FEF82E00E94A2
:102D50008C1110927305109272050E9476080E94E1
:102D6000751084FF1EC00E94751086FD1AC00E9457
:102D7000751087FD16C00E94751085FD12C061E0B8
:102D80008EEF0E94B708882321F061E08EEF0E9449
:102D90008C1182E090E090937305809372050E94FD
:102DA00076080E94751083FF7FC000E010E020E0ED
:102DB00047E260E070E0C8010E94E6090F5F1F4F24
:102DC0000E311105A1F7109284051092830510921F
:102DD0008605109285058091590590915A050E94AB
:102DE000120A109284051092830587E090E0909378
:102DF00086058093850580915B0590915C050E9416
:102E0000120A10928405109283058FE090E090934F
:102E100086058093850580915B0590915C05880F00
:102E2000991F2091590530915A05820F931F97FDE4
:102E30004F9635E0959587953A95E1F7082E000C69
:102E4000990B0E94120A109284051092830587E163
:102E500090E0909386058093850580915B05909125
:102E60005C05880F991F2091590530915A05821BE6
:102E7000930B97FD4F9625E0959587952A95E1F759
:102E8000082E000C990B0E94120A109284051092D1
:102E900083058FE190E0909386058093850580916E
:102EA0005D0590E00E94120A0E94751082FF37C0F3
:102EB0000CE610E020E048E060E070E0C8010E940D
:102EC000E6090F5F1F4F00381105A1F78CE690E06F
:102ED0009093840580938305109286051092850552
:102EE00080917B0590917C056EE170E00E94321A22
:102EF000892B79F48091820534E6839FC0011124E7
:102F000060917F0570E00E94461A709350016093B3
:102F10004F0180914F01909150010E94120A8091BF
:102F20007E0582FD04C080917D0582FDE7C080E0C2
:102F30000E94550A80E090E0892B09F462CC0E943F
:102F400000005FCC2115310581F0FB01E40FF51F76
:102F5000EE50FE4FE491F0E0062C02C0F595E795A7
:102F60000A94E2F7DC90ED29EC936F5F7F4F1196A6
:102F70006835710509F0AACB9CCBA0907205B09082
:102F8000730580917005882311F18091710581117D
:102F900004C00E948B0880935E05E0917105F0E00B
:102FA000E155FD4F0491E0905E050E948B08E02FF3
:102FB000EE0DAE2FA81B809171051A1624F48F5FB9
:102FC0008093710505C01092710510927005A0E004
:102FD00060915B0570915C059B01220F331F80910E
:102FE000590590915A05AC01420F531F57FF02C07B
:102FF000415E5F4FE5E055954795EA95E1F7042E70
:10300000000C550B281B390B37FF02C0215E3F4FC8
:10301000E5E035952795EA95E1F704E12003F00115
:103020001124E40FF51FE455FB4FE4914E2F440F9C
:10303000E40FAE0FA0935D05C0906F05F501EE0F94
:10304000FF1FE959FA4F20813181A501440F551F17
:10305000415A5A4FFA0140815181E0914A01F09161
:103060004B016E0F7F1F605171096A1B7109E0915E
:103070004C01F0914D018E0F9F1FC89641155105CF
:1030800009F48ACCFA0104913196E4904E5F5F4FC7
:10309000CC2079F1A02EB12CAE2DA695A695A695A3
:1030A0008A2E912CA1E0B0E0EE2DE77011F4A0E0A3
:1030B000B0E0A80DB91DAA9E4001AB9E900CBA9E2F
:1030C000900C1124EC2DF0E02115310549F08E9E75
:1030D000D0018F9EB00D9E9EB00D11242A0F3B1F74
:1030E0008E9ED0018F9EB00D9E9EB00D11244A0F72
:1030F0005B1FCC24C3940E94890E4ECC81E0809348
:10310000700515CFE7E9F5E01382128288EE93E0AF
:10311000A0E0B0E084839583A683B7838CE191E03F
:10312000918380838FEF9FEF95878487E4E7F5E0B5
:10313000138212821186128680E18387108617829D
:1031400015868EE291E0918380838CE391E09583F4
:103150008483108A1786128A118A81E0838B148AED
:10316000858B168AE9E5F5E01582168A178A108E96
:10317000128E118E82EB97E09783868380E797E02B
:10318000918780878EE297E0938782878CEE96E026
:10319000958784878CEA96E0978786878CE696E009
:1031A000918B808B8CE296E0938B828B8CEE95E0FA
:1031B000958B848B0895CF92DF92EF92FF920F93BD
:1031C0001F93CF93DF931F92CDB7DEB7182F062F33
:1031D000E42E862F880F8E5F99830E94780A83E001
:1031E0000E94780AF12EC12E9981D92E8C2D8F192B
:1031F000801798F4F601E7FE02C0849101C0808137
:103200000E94780A182F80E00E94780A8123FFEF3D
:10321000CF1ADF0A8111EACF01C081E00F90DF9160
:10322000CF911F910F91FF90EF90DF90CF90089575
:103230000F931F93CF93DF938C0181E090E00E9466
:103240007D1080FF32C08AE090E00E947D109FEFE9
:10325000980F9E3F50F522E330E0D80150963C9302
:103260002E931F9728E330E052963C932E9351976C
:10327000CBE0D0E0D801ED91FC910190F081E02D00
:10328000682FC8010995CE010E947D102196C13199
:10329000D10581F780E00E94550A88EE93E0DF9126
:1032A000CF911F910F910C947010DF91CF911F91CE
:1032B0000F91089504970C9418198F929F92AF92D2
:1032C000BF92CF92DF92EF92FF92CF93DF93EC0108
:1032D000688179818A819B816115710581059105DC
:1032E00021F464E279ED8BE597E02DE133EF41E0E5
:1032F00050E00E94CF1949015A019B01AC01A7EA95
:10330000B1E40E94EE196B017C01ACEEB4EFA501B3
:1033100094010E94FC19DC01CB018C0D9D1DAE1D9A
:10332000BF1DB7FF03C00197A109B04888839983E7
:10333000AA83BB83BC01CD019F77DF91CF91FF9022
:10334000EF90DF90CF90BF90AF909F908F900895B7
:103350000E945D1908958EE091E00E945D19089524
:1033600060930E0170930F018093100190931101EF
:103370000895F999FECF92BD81BDF89A992780B53D
:103380000895262FF999FECF1FBA92BD81BD20BDA9
:103390000FB6F894FA9AF99A0FBE01960895052E81
:1033A00097FB1EF400940E94E61957FD07D00E9477
:1033B000011A07FC03D04EF40C94E6195095409581
:1033C000309521953F4F4F4F5F4F089590958095D1
:1033D000709561957F4F8F4F9F4F08950E94231ADC
:1033E000A59F900DB49F900DA49F800D911D112459
:1033F0000895B7FF0C94EE190E94EE19821B930BEF
:103400000895A1E21A2EAA1BBB1BFD010DC0AA1F25
:10341000BB1FEE1FFF1FA217B307E407F50720F03D
:10342000A21BB30BE40BF50B661F771F881F991FB8
:103430001A9469F760957095809590959B01AC0101
:10344000BD01CF010895A29FB001B39FC001A39F0A
:10345000700D811D1124911DB29F700D811D1124CD
:10346000911D0895AA1BBB1B51E107C0AA1FBB1FDA
:10347000A617B70710F0A61BB70B881F991F5A9500
:10348000A9F780959095BC01CD01089597FB072E73
:1034900016F4009407D077FD09D00E94321A07FC79
:1034A00005D03EF4909581959F4F08957095619554
:1034B0007F4F0895EE0FFF1F0590F491E02D0994C2
:0E34C00081E090E0F8940C94651AF894FFCF28
:1034CE00010100E1000000000000FFFFFFFF01000E
:1034DE000000B0016E01AC00000000001F07F107F4
:1034EE0040073507860744076207000000009D105D
:1034FE00AE0DDB0DDA0D1819FCFF00005A1900C1D4
:06350E00808100000000B6
:00000001FF
